:020000040800F2
:100000007827002035020008C14E0008DD140008E2
:10001000114E0008290700080D5D000800000000CF
:10002000000000000000000000000000B3570008BE
:10003000610E0008000000007552000875580008A5
:100040004F0200084F0200084F0200084F0200084C
:100050004F0200084F020008650E00084F0200081A
:100060009D0E0008D50E00080D0F00084F02000875
:100070004F0200084F0200084F0200084F0200081C
:100080004F0200084F0200084F0200084F0200080C
:100090004F0200084F0200084F020008450F0008F9
:1000A0004F0200084F0200084F0200084F020008EC
:1000B0004F020008C9580008FD5800084F02000808
:1000C0004F0200084F0200084F0200084F020008CC
:1000D0004F020008715B00084F0200084F02000841
:1000E0004F0200084F0200084F0200084F020008AC
:1000F0004F0200084F0200084F0200084F0200089C
:100100004F0200084F020008395900084F0200084A
:100110004F0200084F020008C15900084F020008B2
:100120004F0200084F0200084F0200084F0200086B
:1001300000F002F800F06FF80AA090E8000C82448A
:100140008344AAF10107DA4501D100F064F8AFF267
:10015000090EBAE80F0013F0010F18BFFB1A43F0A5
:1001600001031847209700004097000010F8013B5A
:100170000A4413F0030408BF10F8014B1D1108BF17
:1001800010F8015B641E05D010F8016B641E01F8C5
:10019000016BF9D1002D15D010F8014B03F00C03C1
:1001A0000C2BA1EB04040ABF10F8013BA4EB831451
:1001B000A4EB032405F1010314F8016B5B1E01F8A5
:1001C000016BF9D5914238BF10F8013BD1D370478C
:1001D0000023002400250026103A28BF78C1FBD850
:1001E000520728BF30C148BF0B607047642900F038
:1001F0009D80752900F09A80782900F0D3806329CA
:1002000000F02782732900F02C82002070471FB570
:100210001FBD10B510BD00F057FA1146FFF7F7FFEC
:1002200006F014F900F075FA03B4FFF7F2FF03BC0F
:1002300006F0ADF80948804709480047FEE7FEE7A9
:10024000FEE7FEE7FEE7FEE7FEE7FEE7FEE7FEE786
:1002500004480549034A054B7047000079580008D7
:1002600031010008781F002078270020781F002027
:10027000704700000FB4044910B503AA029800F0BB
:10028000F5F910BC5DF814FB101A002070B5044697
:1002900085690068C10601D5302600E02026C00728
:1002A00007D070BDD4E9012130469047206A401C38
:1002B00020626D1EF6D570BD70B504468569007864
:1002C000C00707D170BDD4E9012120209047206AE2
:1002D000401C20626D1EF6D570BD70B50C460546FB
:1002E000012A05D02878800600D5EA69002302E0BB
:1002F000012305E05B1C934202D2E05C0028F9D1A7
:10030000A869E618C01AA861286A18442862284615
:10031000FFF7BCFF04E0D5E9012114F8010B904779
:10032000B442F8D32846FFF7C7FF70BD2DE9F0416E
:100330000646002410687529314616A510D0AFF383
:100340000080002802DA404213A507E031688A07DE
:1003500001D512A502E0490704D511A5012401E049
:10036000AFF3008000210A2206F1240709E0B0FB68
:10037000F2FCB0FBF2F302FB1C003030785418465C
:10038000491C0028F3D123462A463046BDE8F041F7
:1003900000F0FCB8000000002D0000002B00000061
:1003A0002000000070B504460D4621461068AFF3EA
:1003B00000802188090502D50F4A7A4402E00E4ADE
:1003C0007A440E32002104F1240305E000F00F0608
:1003D0000009965D5E54491C0028F7D1207800235F
:1003E000000704D5702D02D009B102231132204636
:1003F000BDE8704000F0CAB84A9300002DE9F05FF4
:10040000894604464FF0000ADFF874B1FB44C0F897
:1004100020A02046E1688847002874D0252806D00F
:10042000D4E901219047206A401C2062F1E70026B0
:100430005F462046E16888472028054607DB312DC6
:1004400005D2781910F8200C08B10643F1E7B0077F
:1004500001D526F00406C4F81CA00027C4F818A093
:100460002A2D09D0284605F08BFF38B304EB870806
:10047000303DC8F8185019E059F8041B204604EB29
:1004800087029161E1688847012F054618D1E0692C
:10049000002820DA26F020061DE0D8F8180000EB2E
:1004A000800005EB40003038C8F818002046E168AD
:1004B0008847054605F064FF0028EED1012F0AD0D9
:1004C0002E2D08D12046E16888477F1C0546022F63
:1004D00046F02006C4DBA069002803DA404246F05B
:1004E0000106A061F00701D026F010066C2D0BD09C
:1004F000682D09D04C2D39D06A2D35D0742D35D0CA
:100500007A2D33D016E038E0E1682F462046884740
:10051000B842054609D16C2F26D04FF48060E168BF
:10052000064320468847054604E06C2F1AD04FF456
:10053000807006430DB3A5F14100192802D820357B
:1005400046F400664A462946204626604E46FFF796
:100550004DFE80B101280BD0F61D26F0070000F1FA
:10056000080956E74020E4E78020D8E70020D6E7D6
:1005700006F104094DE7284652E7206ABDE8F09FDE
:100580002093000070477047704770472DE9F0478F
:100590000D4699469246044600F1240801688806F3
:1005A00004D5E06921F01001216000E00120A8429B
:1005B00001DD471B00E00027A1697A1902EB090061
:1005C000081AA0612078C00602D42046FFF75EFE1C
:1005D000002608E0D4E901211AF806009047206AB5
:1005E000401C761C20624E45F4DB2078C0060AD5FC
:1005F0002046FFF74BFE06E0D4E90121302090476A
:10060000206A401C2062381EA7F10107F4DC07E0D5
:10061000D4E9012118F805009047206A401C2062A7
:10062000281EA5F10105F3DC2046FFF745FE2078E2
:10063000000602D50220BDE8F0870120FBE710B5D7
:10064000436913B1AFF3008001E0FFF746FE0120DC
:1006500010BD127800F124010A7000224A700122B4
:10066000EDE711684FF0FF32E9E70000074B70B586
:100670000D467B4400F011F80446284600F020F8AF
:1006800010B14FF0FF3070BD204670BDBF5D00005F
:1006900001694A1C02610878704700B58FB0CDE946
:1006A00001310021059105497944CDE90310114636
:1006B0006846FFF7A3FE0FB000BD0000E5FFFFFF97
:1006C000007B00F080007047754600F029F8AE46C8
:1006D00005006946534620F00700854618B020B54E
:1006E000FFF7B6FDBDE820404FF000064FF00007D1
:1006F0004FF000084FF0000B21F00701AC46ACE8CA
:10070000C009ACE8C009ACE8C009ACE8C0098D4636
:1007100070470446AFF300802046FFF785FD0000D8
:1007200000487047141F0020FEE700002DE9F0414B
:1007300000202D4DF0210646E971A8712B4B01E0F8
:10074000401C80B2195C0F29FAD9C2B2EA71401C70
:1007500080B2195C0F29FAD8C1B2A971891A0F2980
:1007600000DBF020401C80B2F028EBD3D0B2401F59
:10077000E871A879DFF87880401D1F21A871A8F8DA
:1007800000101E244FF48C77A979204600F0A0FFBA
:10079000641CA4B2BC42F7D31E24E979204600F0C1
:1007A00097FF641CA4B2BC42F7D34FF47841A8F879
:1007B00000101E24E9792046323100F089FF641CC4
:1007C000A4B2BC42F6D301202872E979A87981420B
:1007D00000D92E72F02900D000B92E72401A0F28CD
:1007E00000DA2E72BDE8F08100000020781B0020A6
:1007F000A40000202DE9F05F45484FF000084FF0BD
:100800001E09C17982794746114446463C25CA46AD
:100810004FEA510B048A29E05946204603F00EFFA7
:100820000246C00AC2F3451102F01F020A281BD972
:10083000192919D90F2A17D91E2815D83C2913D8D8
:100840001E2A11D8804500D280468F4200D20F4622
:10085000964200D21646814500D981468D4200D984
:100860000D46924500D99246641CA4B22848408A9D
:100870008442D1D308EB09004FEA500B78194FEAB4
:10088000500906EB0A004FEA50080020214E4FF4B1
:10089000A07107463754401C80B28842FAD31C48E6
:1008A000DFF874A0C5792CE0018A491C8CB222E0E3
:1008B0002946204603F0C2FEC10AC0F3451200F0EB
:1008C0001F0059450FD34A450DD340450BD34FF672
:1008D000FF71AAF800102946204600F0F9FE305DAD
:1008E000401C305505E0AAF800702946204600F06B
:1008F000EFFE641CA4B20648408A8442D8D36D1C23
:10090000ADB2034881798D42CED3BDE8F09F00009F
:1009100000000020681C0020A40000202DE9F05FEA
:100920002E4800254FF4A07605824682C77980467E
:100930002DE0DFF8AC90DFF8ACA0DFF8ACB01E24FF
:100940003946204603F07AFE04F03AFDD8F83C2000
:1009500041464A44524513D2886B584510DA234A1F
:1009600090420DDD2249D8F83400884208DA214946
:10097000884205DDB44200D22646AC4200D9254665
:10098000641CA4B2B4F5917FDAD37F1CBFB298F88F
:10099000061040468F42CCD306826D1F4582164D0D
:1009A00007464FF478402880FC7905E02146388AD4
:1009B00000F08EFE641CA4B2B8798442F6D31F20E6
:1009C0002880FC7905E02146788A00F081FE641CCD
:1009D000A4B2B8798442F6D3BDE8F09F00000020AD
:1009E000FFFFC1BCFFFF36000000704200007041F5
:1009F0000000C84200003442A40000202DE9F0416C
:100A0000164E4FF4784000243080A1B20A2000F046
:100A10005FFEA1B2142000F05BFEA1B21E2000F028
:100A200057FE641CF02CF0D30D4F00244FF4FC68EB
:100A3000A1B2385D00F04CFE385D0F2809D3A6F84E
:100A400000802325A1B2A8B200F042FE6D1C282D23
:100A5000F8D3641CF02CEBD3BDE8F081A400002097
:100A6000781B00202DE9F041094F0A4D00244FF476
:100A700078464FF4A0783E80295D2046002900F09A
:100A800027FE641CA4B24445F5D3BDE8F081000004
:100A9000A4000020681C00202DE9F84F00208D499B
:100AA000064689460E54401CF028FAD3DFF8288207
:100AB0004FF4A074A8F81040A8F8126098F8090044
:100AC00003F06AFE0021F0232246084603F0DCFF13
:100AD00004F064F9814F4FF480752946384600F0E0
:100AE00059FB0028F9D07E48C0F898610126C0F86B
:100AF0009861DFF8F0B1CBF88C612946384600F0F8
:100B000049FB0128F9D02946384600F043FB00286C
:100B1000F9D00021CBF88C117348C0F8B811734D8F
:100B2000102129602A1F11602960C0F8B861116086
:100B30008A4669496E4EDFF8BCE191F803C0002097
:100B40009346654A0021C5F800A0B468E4B29481D8
:100B5000CBF800A0C5F800A0D6F8088008F0FF0880
:100B6000A2F80E80CBF800A048EA04234FEAD3286D
:100B700082F80080C3F34517577003F01F04947088
:100B8000E04509D992F80480474505D35779BC421E
:100B900002D34FF6FF7400E000245789BC4204D012
:100BA00019F800707F1C09F800705481AEF800300D
:100BB000491CB1F5A07FC6D3401CF028C1D3FFF774
:100BC0001DFFFFF7B3FD444C207A01280FD1FFF73A
:100BD000A5FE208A618A884201D9002222724FF440
:100BE0009172904201D8914203D900202072BDE851
:100BF000F88F207A0128FAD1FFF7FCFDFFF732FFCA
:100C000005F002F9044601463BA0FFF733FB082C30
:100C100001D305F03BF9002000F08AFC00241023EA
:100C20004D22C8210820009403F0ECFF1023652218
:100C3000C8211846009403F0E5FF10236122C82163
:100C40001820009403F0DEFF10237322C821202017
:100C5000009403F0D7FF10237522C82128200094A8
:100C600003F0D0FF10237222C8213020009403F03B
:100C7000C9FF10236522C8213820009403F0C2FF69
:100C800010234622C8214820009403F0BBFF102304
:100C90006122C8215020009403F0B4FF1023692280
:100CA000C8215820009403F0ADFF10236C22C82106
:100CB0008020009403F0A6FF10236C22C821682036
:100CC000009403F09FFFBDE8F84F4FF4487005F023
:100CD0007DBB0000781B00200000002000080140C0
:100CE000008022420080214200002442140C014076
:100CF000001001400008006CB7D6B8EEB3F620250E
:100D00006420B8F6D7D6B7FB200D0A002DE9F05FB6
:100D100000204A49074689460F54401CF028FAD360
:100D2000474C4FF4A07525826782607A03F034FD4A
:100D30000021F0232A46084603F0A6FE04F02EF810
:100D4000404E4FF480752946304600F023FA0028C3
:100D5000F9D03D49C1F898714FF0010BC1F898B135
:100D6000DFF8E880C8F88CB12946304600F012FA66
:100D70000128F9D02946304600F00CFA0028F9D0B5
:100D8000C8F88C71324BC3F8B871324E1021316003
:100D9000321F11603160C3F8B8B111602E4F94F862
:100DA00003C0DFF8B8E00020934600214FF0100A9E
:100DB000C6F800A0BB68DBB2A381CBF800A0C6F8E0
:100DC00000A0D7F8088008F0FF08A4F80E80CBF840
:100DD00000A048EA03224FEAD22884F80080C2F338
:100DE0004515657002F01F03A370E04509D994F81A
:100DF0000480454505D36579AB4202D34FF6FF73B6
:100E000000E000236589AB4204D019F800506D1C46
:100E100009F800506381AEF80020491CB1F5A07FAD
:100E2000C6D3401CF028C0D3607A03F0B5FCFFF7AE
:100E3000E5FDBDE8F05FFFF779BC0000781B0020FE
:100E40000000002000080140008022420080214272
:100E500000002442140C0140001001400008006C06
:100E60007047000010B50A2005F0B0FA01210948CA
:100E700000F090F9012806D10749D1F8A00138B156
:100E80000020C1F8A001BDE81040012000F07EB8AC
:100E90000120F6E7000801400080214210B50A2039
:100EA00005F094FA0421094800F074F930B90849B2
:100EB000D1F8940138B10020C1F89401BDE8104088
:100EC000042000F063B80120F6E70000001801409C
:100ED0000080214210B50A2005F078FA082109485F
:100EE00000F058F930B90849D1F8940138B1002020
:100EF000C1F89401BDE81040082000F047B8012077
:100F0000F6E70000001801400000234210B50A2057
:100F100005F05CFA1021094800F03CF930B90849A5
:100F2000D1F8940138B10020C1F89401BDE8104017
:100F3000102000F02BB80120F6E700000018014057
:100F40000080214210B54FF48074204600F024F850
:100F5000012806D10A4B0B4A0021187830B1C2F89B
:100F60008C112046BDE8104000F010B80648C0F8CB
:100F700098110121C0F89811C2F88C111970F0E78E
:100F8000A800002000802142008022420149086020
:100F90007047000014040140064A01460020126810
:100FA000044B0A4014331B680B4202D0002A00D0C5
:100FB00001207047000401408000A0F1C0400029DA
:100FC000016802D041F0010101E0024A11400160D4
:100FD00070470000FEFF0F0010B5D0E90112114369
:100FE000D0E903231A431143426911438269114333
:100FF000C2691143026A1143426A1143826A114372
:10100000C26A1143026B114302689200A2F1C0420E
:1010100011608168082907D101688900A1F1C041E8
:101020000A6842F040020A60416BD1E9002342EABB
:1010300003128B688C891B0243EA04431A430B8A10
:1010400042EA03520B7D896942EA03620A4301685E
:101050008900A1F1C0414A60C16AB1F5804F08D052
:1010600000686FF070418000A0F1C040C0F804112A
:1010700010BD816BD1E9002342EA03128B680C8A10
:101080001B0243EA04531A430B7D896942EA036257
:1010900000680A438000A0F1C040C0F8042110BDE0
:1010A000F0B5CC78002204F00F03E40601D58C786B
:1010B00023430C784FF00F0C14F0FF0F4FF0010E8C
:1010C0001BD005680E880EFA02F42640A64210D105
:1010D00096000CFA06F725EA070703FA06F5CE781C
:1010E0003D43282E02D0482E02D002E0446100E0A9
:1010F0000461521C082AE5D305600A88FF2A1CD91E
:101100004468002202F108060EFA06F50E882E4009
:10111000AE420ED196000CFA06F7BC4303FA06F76E
:10112000CE783C43282E00D14561CE78482E00D1A0
:101130000561521C082AE5D34460F0BDF0B5144C9B
:10114000002801DAE36900E06368450D2E0185B2ED
:10115000C0F30157B540C0F30342032F05D0C602C8
:101160000AD503269640B34307E023F07062636814
:1011700023F07063636002E0AB4343F0706201B13F
:101180002A43002801DAE261F0BD6260F0BD000090
:10119000000001400246002092680A4200D001206F
:1011A00070470161704700002DE9F04F054687B098
:1011B00088460020A5EB08090490B9F1190F7DDAE3
:1011C000C44908F1010ACA798979521C491ED6B26C
:1011D000CFB20CE01FFA8AF406E03146204603F055
:1011E0002DFAB8B9641CA4B2AC42F6D390B9310060
:1011F00001F10106F6B2EDD10CE01FFA8AF406E027
:101200003946204603F01AFA38B9641CA4B2AC423D
:10121000F6D310B97F1EFFB2EFD2761EF6B2BF1C16
:10122000F8B2CDE900063146404600F051FA2846B2
:10123000009900F04DFA019E4FF00008761C20E066
:1012400008F1BF0000271FFA8AF4C9F5887B0290D5
:101250000FE03146204603F0F1F99F4908800BEB7F
:10126000070080B2029900F033FA7F1C641CFFB2C1
:10127000A4B2AC42EDD308F10100761C00F0FF08E7
:10128000B6B200988642DBD34FF47A7005F09EF830
:10129000C9F11901A9F10100CDE9021091FBF0F0AB
:1012A00003984FF0000B91FBF0F200FB121010F0CE
:1012B000FF0005D01821B1FBF0F000E006E104903A
:1012C0000198401C54E0DDE9020190FBF1F201FBC2
:1012D0001200002400F0FF081FFA8AF73FE03846AA
:1012E000059903F0ABF97C49814608800BF1BF01F9
:1012F00004F20F10069100F0EBF9DDE9020190FB1A
:10130000F1F0641CE4B2C6B20BE0734904F20F10B2
:10131000A1F80090069900F0DBF9761E641CF6B285
:10132000E4B2002EF1D1B8F1000F16D0601C049980
:101330000646B0FBF1F201FB126070B9012C0CD033
:10134000654904F20F10A1F80090069900F0C0F969
:10135000A8F1010000F0FF08F4B27F1CBFB2AF4259
:10136000BDD30BF1010000F0FF0B0598401C80B2CB
:10137000059000998842A6D34FF47A7005F026F8BC
:1013800055484FF4FC6140F20F140180BF21204604
:1013900000F09EF9F021204600F09AF940F227145F
:1013A000BF21204600F094F9F021204600F090F98A
:1013B000DDE90001401A009032287BDAC0F13101EA
:1013C000401C91FBF0F202F0FF0891FBF0F200FBF1
:1013D0001210322100F0FF09B1FBF9F0002426467B
:1013E0004FF4947B049062E0DFF8ECA004F1BF00BE
:1013F00040F20F1506F1BF070190B9B2284603F07D
:101400001DF9AAF8000005F1190080B2019900F059
:101410005FF96D1CADB25D45EFD3641CE4B2B8F169
:10142000000F1AD0A01940F20F1500F1BF0AB9B28F
:10143000284603F003F92849088005F119001FFA2E
:101440008AF180B200F044F96D1CADB25D45EED377
:10145000A8F1010000F0FF08DFE7B9F1000F24D088
:10146000601C04998246B0FBF1F201FB12A0E0B9C6
:10147000012C1AD0BF34019440F20F155C46B9B26A
:10148000284603F0DBF81449088005F1190080B202
:10149000019900F01DF96D1CADB2A542EFD3A9F181
:1014A000010000F0FF090AF0FF04761CB6B20098B4
:1014B000B04299DC08484FF47841018007B0BF2161
:1014C000BDE8F04F4FF4A07000F002B907B0BDE8DE
:1014D000F08F000000000020A4000020FEE70000C4
:1014E00008B50121442003F015FF1C20ADF80000D1
:1014F00048208DF8030069460648FFF7D1FD01201A
:10150000ADF8000028208DF8030069460248FFF777
:10151000C7FD08BD0018014000080140C0F3451197
:10152000C20AC00200EB4110104480B270470000B4
:101530002DE9F043174F0646002438887D8845433F
:10154000B888A0F5D041043902D1B879012807D074
:101550000021084603F0F4F903F020FC0E4815E0E2
:101560000020B8714FF02A09A7F80A904FF02B0815
:10157000A7F80C80014603F0E3F90120B871A7F841
:101580000A80A7F80C90E7E70680641CAC42FBD306
:10159000BDE8F0833E1E00200008006C2DE9F04FEE
:1015A0004A492A232B24898845F2105A4FF4305B8C
:1015B0004FF4285E4FF448754FF0F00C49F2413972
:1015C0004FF4A07745F210364FF4F07280B13F48E7
:1015D0004FF00108494580F806800780A0F802C056
:1015E00001D0B1423ED12C2505814381848157E051
:1015F00036484FF00008494580F80680A0F800C042
:10160000478006D0A1F5D04CBCF1040C01D0B1420A
:101610000CD12C2505814381A1F5D0438481043B65
:1016200001D0B14244D10780428041E0514507D109
:10163000A0F808B0A0F80AE04FF42C5181810EE028
:10164000A1F5C856633E06D02221018120214181A7
:10165000212181812CE02C21018144818381028020
:10166000458025E0A1F5D04CBCF1040C09D05145D2
:101670000BD1A0F808B0A0F80AE04FF42C538381F6
:1016800021E02C250581448109E0A1F5C85CBCF16D
:10169000630C12D0222303812123438120238381E1
:1016A000A1F5D043043B01D0B14201D10280478073
:1016B000BDE8F04F062003F06FB84FF02C0CA0F8F7
:1016C00008C04381848105804280E9E73E1E0020F6
:1016D00000B503F035F903F061FB024802490088C8
:1016E000088000BDA40000200008006C2DE9F04F28
:1016F000DFF80C81934642460B46B8F804500C0ABA
:10170000DFF800A19189060A5289A5F513470AF16D
:101710000209413F18D0A5F5A647103F14D0B7F5F0
:1017200000771CD04746A5F5C85CBE793F883F1AB4
:101730007F1EBCF1630C27D0A5F5D04CBCF1040C86
:101740003AD0012E4AD04AE0AAF800204A46A9F829
:101750000060C0B2A9F80000AAF800103AE0AAF8A8
:101760000020A9F80060521CAAF80020C0B2A9F815
:101770000000AAF80010A9F80040491CAAF80010BF
:10178000D8B2A9F8000033E006B9B8B2AAF8002030
:10179000050A4A46A9F80050C7B2A9F80070A9F88E
:1017A0000050C0B2A9F80000AAF80010A9F8004043
:1017B000D8B2A9F800000DE0012E00D1B8B2AAF805
:1017C0000020050A4A46A9F80050C0B2A9F8000056
:1017D000AAF800101480D8B2108009E0B8B201460F
:1017E000104603F0E5FAB8F80C00194603F0E0FAE9
:1017F000B8F80810AAF80010A9F800B0BDE8F08FFA
:101800003E1E0020FE07006C2DE9F04F01210E0264
:101810009FB0304603F066FD01214FF4B47003F031
:1018200079FD4FF00108ADF83C8010258DF83F5050
:1018300003208DF83E0047460FA9FE48FFF730FC15
:101840004CF23370ADF83C0018248DF83F40032073
:101850008DF83E000FA9F848FFF722FC4FF6807084
:10186000ADF83C008DF83F4003208DF83E000FA9F5
:10187000F248FFF715FC41F20100ADF83C008DF88D
:101880003F4003208DF83E000FA9ED48FFF708FC0C
:1018900000200F21CDE918011A901B901C901D907B
:1018A00003211090CDE91101CDE91607149006210E
:1018B0001590CDE90010CDE902051390049029029E
:1018C000CDE908010690059007908900CDE90A014D
:1018D0000C9017A80D9010A80E906846FFF77CFB9F
:1018E00001210620FFF768FB322004F06FFD002085
:1018F00002F028FFD34AD44C49F2413AA51C90800B
:1019000046F6040B45F210514FF6FF79FF2804D339
:10191000484502D0B0F5134F6FD1D320208002F09C
:1019200083FE908002F080FE908002F07DFE09EA46
:1019300000204F46908002F077FE938818439080F5
:1019400050455AD0BF20208002F06EFE908002F0F9
:101950006BFE908002F068FE908002F065FE07EA60
:101960000020908002F060FE9388184390805845D4
:1019700043D0D420208002F057FE908002F054FE25
:10198000908002F051FE07EA0020908002F04CFEA9
:1019900093881843A0F5A6439080103B2DD04FF4B8
:1019A0005A40208002F040FE90804FF45B4020803F
:1019B00002F03AFE07EA002090804FF45C4020805D
:1019C00002F032FE938818439080B0F5004F7DD02E
:1019D000884212D0A120208002F026FE908002F0E2
:1019E00023FE07EA0020908002F01EFE9388184331
:1019F000A0F5AE439080613B69D080B2504567D17D
:101A0000CF20208000202880C120288030202880FE
:101A1000ED20208064202880032028801220288048
:101A200081202880E82020808520288010202880A0
:101A30007A202880CB202080392028802C202880E4
:101A4000002028803420288002202880F720208051
:101A500020202880EA202080002028802880C020A4
:101A600020801B202880C120208001202880C520C4
:101A70002080302028802880C7202080B720288020
:101A800036202080482028803A2020805520288039
:101A9000B1202080002028801A202880B6202080B5
:101AA0000A202880A2202880F22020800020288080
:101AB0002620208001202880E02020800F20288000
:101AC0002A20288028202880082002E04DE047E0D6
:101AD0004DE028800E20288008202880542028806F
:101AE000A9202880432028800A2028800F202880D1
:101AF00000202880288028802880E1202080002065
:101B00002880152028801720288007202880112071
:101B10002880062028802B202880562028803C20E2
:101B2000288005202880102028800F2028803F2032
:101B3000288028800F2028802B20208000202880CB
:101B40002880012028803F2028802A202080002013
:101B5000288028802880EF2028801120208081E0A4
:101B600041F66310908002F0CFBC918086E058452A
:101B70007DD111202080142004F028FCD02020806A
:101B800007202880422028801D202880D120208006
:101B9000002028801A20288009202880D220208038
:101BA0000120288022202880C0202080102028802A
:101BB0003B202880002028800220288011202880B7
:101BC000C520208003202880C82020800020288075
:101BD000252028802120288005202880002028809A
:101BE0000A202880652028802520288077202880CA
:101BF000502028800F20288000202880F820208076
:101C000001202880FE2020800020288002202880BB
:101C10002020208036202080082028803A20208024
:101C2000552028802B20208000202880288001201B
:101C300028800CE0000C0140001401400018014015
:101C4000002001403E1E0020FE07006C0FE03F20F8
:101C500028802A20208000202880288001202880B9
:101C6000DF202880782004F0B1FB2920FDE3A0F5D7
:101C7000A642103A7DD0884241F029844FF4704347
:101C80005521184603F094F84FF20105AA21284681
:101C900003F08EF86E1C5221304603F089F8AF1C19
:101CA0000821384603F084F84FF2040A0121504617
:101CB00003F07EF80D214FF4304003F079F80D2148
:101CC0004BF2010003F074F80D214BF2020003F017
:101CD0006FF84FF4364B3421584603F069F834213D
:101CE0004BF2016003F064F834214BF2026003F020
:101CF0005FF80D214FF4314003F05AF80D214BF2FB
:101D0000011003F055F80D214BF2021003F050F8CA
:101D100034214FF4374003F04BF834214BF201707B
:101D200003F046F834214BF2027003F041F8002131
:101D30004FF4324003F03CF800214BF2012003F055
:101D400037F800214BF2022003F032F824214FF43F
:101D5000384003F02DF824214BF6010003F028F859
:101D600024214BF6020003F023F801214FF43F40F9
:101D700000E0FCE303F01CF80F214FF4334003F0C4
:101D800017F80F214BF2013003F012F80F214BF23C
:101D9000023003F00DF834214FF4394003F008F815
:101DA00034214BF6011003F003F834214BF60210F6
:101DB00002F0FEFF08214FF4354002F0F9FF082140
:101DC0004BF2015002F0F4FF08214BF2025002F0F6
:101DD000EFFF03214FF4424002F0EAFF24214FF4C9
:101DE0003A4002F0E5FF24214BF6012002F0E0FF2B
:101DF00024214BF6022002F0DBFF00214FF43C408F
:101E000002F0D6FF78214BF6014002F0D1FF00210D
:101E10004BF6024002F0CCFF00214FF43D4002F0AF
:101E2000C7FF78214BF6015002F0C2FF00214BF6AC
:101E3000025002F0BDFF00214FF43E4002F0B8FF17
:101E400064214BF6016002F0B3FF00214FF45140D2
:101E500002F0AEFF33214DF2011002F0A9FF002184
:101E60004DF2021002F0A4FF34214DF2031002F0F3
:101E70009FFF00214DF2041002F09AFF3A214DF22B
:101E8000051002F095FF00214DF2061002F090FFC0
:101E90004A214DF2071002F08BFF00214DF208108D
:101EA00002F086FF5C214DF2091002F081FF002153
:101EB0004DF20A1002F07CFF81214DF20B1002F06E
:101EC00077FF00214DF20C1002F072FFA6214DF2B7
:101ED0000D1002F06DFF00214DF20E1002F068FFB0
:101EE000E5214DF20F1002F063FF01214DF21010B9
:101EF00002F05EFF13214DF2111002F059FF012193
:101F00004DF2121002F054FF54214DF2131002F062
:101F10004FFF01214DF2141002F04AFF82214DF2D1
:101F2000151002F045FF01214DF2161002F040FF9E
:101F3000CA214DF2171002F03BFF02214DF218109A
:101F400002F036FF00214DF2191002F031FF02219C
:101F50004DF21A1002F02CFF01214DF21B1002F07D
:101F600027FF02214DF21C1002F022FF34214DF216
:101F70001D1002F01DFF02214DF21E1002F018FF8D
:101F800067214DF21F1002F013FF02214DF22010C5
:101F900002F00EFF84214DF2211002F009FF022110
:101FA0004DF2221002F004FFA4214DF2231002F0A2
:101FB000FFFE02214DF2241002F0FAFEB7214DF28D
:101FC000251002F0F5FE02214DF2261002F0F0FE7F
:101FD000CF214DF2271002F0EBFE02214DF2281026
:101FE00002F0E6FEDE214DF2291002F0E1FE0221B0
:101FF0004DF22A1002F0DCFEF2214DF22B1002F01D
:10200000D7FE02214DF22C1002F0D2FEFE214DF23D
:102010002D1002F0CDFE03214DF22E1002F0C8FE6D
:1020200010214DF22F1002F0C3FE03214DF23010AB
:1020300002F0BEFE33214DF2311002F0B9FE032151
:102040004DF2321002F0B4FE6D214DF2331002F069
:10205000AFFE00214FF4524002F0AAFE33214DF2B0
:10206000012002F0A5FE00214DF2022002F0A0FEA8
:1020700034214DF2032002F09BFE00214DF204209A
:1020800002F096FE3A214DF2052002F091FE002169
:102090004DF2062002F08CFE4A214DF2072002F09C
:1020A00087FE00214DF2082002F082FE5C214DF2F5
:1020B000092002F07DFE00214DF20A2002F078FE98
:1020C00081214DF20B2002F073FE00214DF20C2015
:1020D00002F06EFEA6214DF20D2002F069FE0021F5
:1020E0004DF20E2002F064FEE5214DF20F2002F0C9
:1020F0005FFE01214DF2102002F05AFE13214DF235
:10210000112002F055FE01214DF2122002F050FE86
:1021100054214DF2132002F04BFE01214DF2142008
:1021200002F046FE82214DF2152002F041FE01210F
:102130004DF2162002F03CFECA214DF2172002F0AB
:1021400037FE02214DF2182002F032FE00214DF23E
:10215000192002F02DFE02214DF21A2002F028FE75
:1021600001214DF21B2002F023FE02214DF21C2022
:1021700002F01EFE34214DF21D2002F019FE022154
:102180004DF21E2002F014FE67214DF21F2002F0D6
:102190000FFE02214DF2202002F00AFE84214DF2B2
:1021A000212002F005FE02214DF2222002F000FE65
:1021B000A4214DF2232002F0FBFD02214DF2242048
:1021C00002F0F6FDB7214DF2252002F0F1FD0221CB
:1021D0004DF2262002F0ECFDCF214DF2272002F037
:1021E000E7FD02214DF2282002F0E2FDDE214DF252
:1021F000292002F0DDFD02214DF22A2002F0D8FD57
:10220000F2214DF22B2002F0D3FD02214DF22C20C1
:1022100002F0CEFDFE214DF22D2002F0C9FD03217A
:102220004DF22E2002F0C4FD10214DF22F2002F0BD
:10223000BFFD03214DF2302002F0BAFD33214DF2F3
:10224000312002F0B5FD03214DF2322002F0B0FD45
:102250006D214DF2332002F0ABFD00214FF45340CD
:1022600002F0A6FD33214DF2013002F0A1FD002164
:102270004DF2023002F09CFD34214DF2033002F0A9
:1022800097FD00214DF2043002F092FD3A214DF20B
:10229000053002F08DFD00214DF2063002F088FD80
:1022A0004A214DF2073002F083FD00214DF2083043
:1022B00002F07EFD5C214DF2093002F079FD002133
:1022C0004DF20A3002F074FD81214DF20B3002F024
:1022D0006FFD00214DF20C3002F06AFDA6214DF297
:1022E0000D3002F065FD00214DF20E3002F060FD70
:1022F000E5214DF20F3002F05BFD01214DF210306F
:1023000002F056FD13214DF2113002F051FD012172
:102310004DF2123002F04CFD54214DF2133002F018
:1023200047FD01214DF2143002F042FD82214DF2B1
:10233000153002F03DFD01214DF2163002F038FD5E
:10234000CA214DF2173002F033FD02214DF2183050
:1023500002F02EFD00214DF2193002F029FD02217C
:102360004DF21A3002F024FD01214DF21B3002F033
:102370001FFD02214DF21C3002F01AFD34214DF2F6
:102380001D3002F015FD02214DF21E3002F010FD4D
:1023900067214DF21F3002F00BFD02214DF220307B
:1023A00002F006FD84214DF2213002F001FD0221F0
:1023B0004DF2223002F0FCFCA4214DF2233002F059
:1023C000F7FC02214DF2243002F0F2FCB7214DF26D
:1023D000253002F0EDFC02214DF2263002F0E8FC3F
:1023E000CF214DF2273002F0E3FC02214DF22830DC
:1023F00002F0DEFCDE214DF2293002F0D9FC022190
:102400004DF22A3002F0D4FCF2214DF22B3002F0D2
:10241000CFFC02214DF22C3002F0CAFCFE214DF21D
:102420002D3002F0C5FC03214DF22E3002F0C0FC2D
:1024300010214DF22F3002F0BBFC03214DF2303061
:1024400002F0B6FC33214DF2313002F0B1FC032131
:102450004DF2323002F0ACFC6D214DF2333002F01F
:10246000A7FC00214FF4544000E084E302F0A0FCFC
:1024700033214DF2014002F09BFC00214DF202405D
:1024800002F096FC34214DF2034002F091FC002151
:102490004DF2044002F08CFC3A214DF2054002F06E
:1024A00087FC00214DF2064002F082FC4A214DF2E9
:1024B000074002F07DFC00214DF2084002F078FC5C
:1024C0005C214DF2094002F073FC00214DF20A40FC
:1024D00002F06EFC81214DF20B4002F069FC0021FC
:1024E0004DF20C4002F064FCA6214DF20D4002F0CA
:1024F0005FFC00214DF20E4002F05AFCE5214DF246
:102500000F4002F055FC01214DF2104002F050FC4A
:1025100013214DF2114002F04BFC01214DF212400B
:1025200002F046FC54214DF2134002F041FC01211F
:102530004DF2144002F03CFC82214DF2154002F0B5
:1025400037FC01214DF2164002F032FCCA214DF257
:10255000174002F02DFC02214DF2184002F028FC39
:1025600000214DF2194002F023FC022100E005E3B6
:102570004DF21A4002F01CFC01214DF21B4002F00A
:1025800017FC02214DF21C4002F012FC34214DF2E6
:102590001D4002F00DFC02214DF21E4002F008FC2D
:1025A00067214DF21F4002F003FC02214DF2204052
:1025B00002F0FEFB84214DF2214002F0F9FB0221E2
:1025C0004DF2224002F0F4FBA4214DF2234002F030
:1025D000EFFB02214DF2244002F0EAFBB7214DF25D
:1025E000254002F0E5FB02214DF2264002F0E0FB1F
:1025F000CF214DF2274002F0DBFB02214DF22840B3
:1026000002F0D6FBDE214DF2294002F0D1FB02217F
:102610004DF22A4002F0CCFBF2214DF22B4002F0A9
:10262000C7FB02214DF22C4002F0C2FBFE214DF20D
:102630002D4002F0BDFB03214DF22E4002F0B8FB0D
:1026400010214DF22F4002F0B3FB03214DF2304038
:1026500002F0AEFB33214DF2314002F0A9FB032121
:102660004DF2324002F0A4FB6D214DF2334002F0F6
:102670009FFB00214FF4554002F09AFB33214DF2AD
:10268000015002F095FB00214DF2025002F090FB48
:1026900034214DF2035002F08BFB00214DF2045027
:1026A00002F086FB3A214DF2055002F081FB002139
:1026B0004DF2065002F07CFB4A214DF2075002F029
:1026C00077FB00214DF2085002F072FB5C214DF2C5
:1026D000095002F06DFB00214DF20A5002F068FB38
:1026E00081214DF20B5002F063FB00214DF20C50A2
:1026F00002F05EFBA6214DF20D5002F059FB0021C5
:102700004DF20E5002F054FBE5214DF20F5002F055
:102710004FFB01214DF2105002F04AFB13214DF204
:10272000115002F045FB01214DF2125002F040FB26
:1027300054214DF2135002F03BFB01214DF2145095
:1027400002F036FB82214DF2155002F031FB0121DF
:102750004DF2165002F02CFBCA214DF2175002F038
:1027600027FB02214DF2185002F022FB00214DF20E
:10277000195002F01DFB02214DF21A5002F018FB15
:1027800001214DF21B5002F013FB02214DF21C50AF
:1027900002F00EFB34214DF21D5002F009FB022124
:1027A0004DF21E5002F004FB67214DF21F5002F063
:1027B000FFFA02214DF2205002F0FAFA84214DF284
:1027C000215002F0F5FA02214DF2225002F0F0FA07
:1027D000A4214DF2235002F0EBFA02214DF22450D5
:1027E00002F0E6FAB7214DF2255002F0E1FA02219B
:1027F0004DF2265002F0DCFACF214DF2275002F0C4
:10280000D7FA02214DF2285002F0D2FADE214DF221
:10281000295002F0CDFA02214DF22A5002F0C8FAF6
:10282000F2214DF22B5002F0C3FA02214DF22C504E
:1028300002F0BEFAFE214DF22D5002F0B9FA03214A
:102840004DF22E5002F0B4FA10214DF22F5002F04A
:10285000AFFA03214DF2305002F0AAFA33214DF2C3
:10286000315002F0A5FA03214DF2325002F0A0FAE5
:102870006D214DF2335002F09BFA00214FF4564087
:1028800002F096FA33214DF2016002F091FA002134
:102890004DF2026002F08CFA34214DF2036002F036
:1028A00087FA00214DF2046002F082FA3A214DF2DB
:1028B000056002F07DFA00214DF2066002F078FA20
:1028C0004A214DF2076002F073FA00214DF20860D0
:1028D00002F06EFA5C214DF2096002F069FA002103
:1028E0004DF20A6002F064FA81214DF20B6002F0B1
:1028F0005FFA00214DF20C6002F05AFAA6214DF267
:102900000D6002F055FA00214DF20E6002F050FA0F
:10291000E5214DF20F6002F04BFA01214DF21060FB
:1029200002F046FA13214DF2116002F041FA012142
:102930004DF2126002F03CFA54214DF2136002F0A5
:1029400037FA01214DF2146002F032FA82214DF281
:10295000156002F02DFA01214DF2166002F028FAFE
:10296000CA214DF2176002F023FA02214DF21860DD
:1029700002F01EFA00214DF2196002F019FA02214C
:102980004DF21A6002F014FA01214DF21B6002F0C0
:102990000FFA02214DF21C6002F00AFA34214DF2C6
:1029A0001D6002F005FA02214DF21E6002F000FAED
:1029B00067214DF21F6002F0FBF902214DF2206009
:1029C00002F0F6F984214DF2216002F0F1F90221C2
:1029D0004DF2226002F0ECF9A4214DF2236002F0E6
:1029E000E7F902214DF2246002F0E2F9B7214DF23D
:1029F000256002F0DDF902214DF2266002F0D8F9DF
:102A0000CF214DF2276002F0D3F902214DF2286068
:102A100002F0CEF9DE214DF2296002F0C9F902215F
:102A20004DF22A6002F0C4F9F2214DF22B6002F05F
:102A3000BFF902214DF22C6002F0BAF9FE214DF2ED
:102A40002D6002F0B5F903214DF22E6002F0B0F9CD
:102A500010214DF22F6002F0ABF903214DF23060EE
:102A600002F0A6F933214DF2316002F0A1F9032101
:102A70004DF2326002F09CF96D214DF2336002F0AC
:102A800097F95521184602F093F9AA21284602F039
:102A90008FF95221304602F08BF90821384602F0B6
:102AA00087F90021504602F083F9CC214FF43140E0
:102AB00002F07EF900214BF2011002F079F90521B4
:102AC000584602F075F970214FF4374002F070F962
:102AD00070214BF2017002F06BF901214FF4384084
:102AE00002F066F903214BF6010002F061F90321BF
:102AF0004BF6020002F05CF903214BF6030002F0F2
:102B000057F902214FF43C4002F052F900214BF6F4
:102B1000014002F04DF900214BF6024002F048F965
:102B2000D0214FF4494002F043F902214CF6011044
:102B300002F03EF950214CF6021002F039F9502112
:102B40004CF6031002F034F950214CF6041002F058
:102B50002FF900214FF4545002F02AF955214FF477
:102B6000685002F025F94FF488502080782003F057
:102B700047FC4FF42450208001F040BDED20208020
:102B800001202880FE202880EE202080DE20288062
:102B900021202880F120208001202880DF20208033
:102BA00010202880C42020808F202880C6202080EC
:102BB00000202880E220288028802880BF202080D4
:102BC000AA202880B02020800D2028800020288086
:102BD0000D202880002028801120288000202880B7
:102BE000192028800020288021202880002028808B
:102BF0002D202880002028803D202880002028804B
:102C00005D202880002028805D20288000202880EA
:102C1000B120208080202880002028808B202880E0
:102C2000002028809620288000202880B220208044
:102C3000002028802880022028800020288003206F
:102C4000288000202880B320208000202880288031
:102C50002880288028802880288028802880288034
:102C60002880288028802880288028802880288024
:102C7000288028802880288028802880B4202080F0
:102C80008B20288000202880962028800020288003
:102C9000A120288000202880B520208002202880C4
:102CA00000202880032028800020288004202880FD
:102CB00000202880B6202080002028802880B7208F
:102CC00020800020288028803F2028800020288025
:102CD0005E20288000202880642028800020288012
:102CE0008C20288000202880AC202880002028808C
:102CF000DC20288000202880702028800020288068
:102D00009020288000202880EB2028800020288028
:102D1000DC20288000202880B82020800020288007
:102D20002880288028802880288028802880BA2031
:102D30002080242028800020288028802880C1200E
:102D400020802020288000202880542028800020F7
:102D50002880FF20288000202880C22020800A2090
:102D60002880002028800420288000202880C3207C
:102D700020803C202880002028803A2028800020C5
:102D800028803920288000202880372028800020B3
:102D900028803C20288000202880362028800020A1
:102DA000288032202880002028802F2028800020A2
:102DB00028802C202880002028802920288000209E
:102DC0002880262028800020288024202880002099
:102DD000288024202880002028802320288000208C
:102DE00028803C2028800020288036202880002051
:102DF000288032202880002028802F202880002052
:102E000028802C202880002028802920288000204D
:102E10002880262028800020288024202880002048
:102E2000288024202880002028802320288000203B
:102E30002880C4202080622028800020288005204F
:102E40002880002028808420288000202880F020EE
:102E50002880002028801820288000202880A42096
:102E600028800020288018202880002028805020DA
:102E70002880002028800C2028800020288017200F
:102E80002880002028809520288000202880F3209A
:102E9000288000202880E620288000202880C52067
:102EA0002080322028800020288044202880002094
:102EB0002880652028800020288076202880002017
:102EC00028808820288000202880C620208020207C
:102ED00028800020288017202880002028800120BA
:102EE000288000202880C72020800020288028807B
:102EF00028802880C82020800020288028802880E2
:102F00002880C920208000202880288028802880D0
:102F10002880288028802880288028802880288071
:102F20002880288028802880E02020801620288083
:102F3000002028801C202880002028802120288034
:102F400000202880362028800020288046202880E5
:102F5000002028805220288000202880642028809B
:102F6000002028807A202880002028808B2028803C
:102F7000002028809920288000202880A8202880F0
:102F800000202880B920288000202880C4202880A4
:102F900000202880CA20288000202880D220288075
:102FA00000202880D920288000202880E020288048
:102FB00000202880F320288000202880E120208025
:102FC00016202880002028801C20288000202880AF
:102FD0002220288000202880362028800020288079
:102FE000452028800020288052202880002028802A
:102FF00064202880002028807A20288000202880D3
:103000008B2028800020288099202880002028807C
:10301000A820288000202880B9202880002028802F
:10302000C420288000202880CA20288000202880F2
:10303000D220288000202880D820288000202880C6
:10304000E020288000202880F3202880002028808D
:10305000E220208005202880002028800B20288066
:10306000002028801B2028800020288034202880F1
:103070000020288044202880002028804F2028809D
:103080000020288061202880002028807920288046
:1030900000202880882028800020288097202880F1
:1030A00000202880A620288000202880B7202880A3
:1030B00000202880C220288000202880C720288067
:1030C00000202880D120288000202880D620288039
:1030D00000202880DD20288000202880F320288000
:1030E00000202880E32020800520288000202880E0
:1030F0000A202880002028801C202880002028808A
:103100003320288000202880442028800020288028
:1031100050202880002028806220288000202880DD
:10312000782028800020288088202880002028807F
:103130009720288000202880A62028800020288032
:10314000B720288000202880C220288000202880E6
:10315000C720288000202880D120288000202880B7
:10316000D520288000202880DD202880002028808D
:10317000F320288000202880E4202080012028805F
:10318000002028800120288000202880022028801C
:10319000002028802A202880002028803C202880A9
:1031A000002028804B202880002028805D20288057
:1031B00000202880742028800020288084202880F7
:1031C000002028809320288000202880A2202880AA
:1031D00000202880B320288000202880BE2028805E
:1031E00000202880C420288000202880CD2028802E
:1031F00000202880D320288000202880DD202880FF
:1032000000202880F320288000202880E5202080CE
:103210000020288028802880288002202880002004
:10322000288029202880002028803C202880002019
:1032300028804B202880002028805D2028800020C6
:103240002880742028800020288084202880002066
:1032500028809320288000202880A2202880002019
:103260002880B320288000202880BE2028800020CD
:103270002880C420288000202880CD20288000209D
:103280002880D320288000202880DC20288000206F
:103290002880F320288000202880E620208011202C
:1032A0002880002028803420288000202880562074
:1032B0002880002028807620288000202880772001
:1032C00028800020288066202880002028808820F0
:1032D0002880002028809920288000202880BB207A
:1032E00028800020288099202880002028806620BF
:1032F0002880002028805520288000202880552004
:103300002880002028804520288000202880432015
:103310002880002028804420288000202880E72062
:1033200020803220288000202880552028800020FE
:103330002880762028800020288066202880002091
:10334000288067202880002028806720288000208F
:10335000288087202880002028809920288000202D
:103360002880BB20288000202880992028800020E9
:103370002880772028800020288044202880002072
:1033800028805620288000202880232028800020A4
:103390002880332028800020288045202880002095
:1033A0002880E820208000202880288099202880FC
:1033B00000202880872028800020288088202880DE
:1033C0000020288077202880002028806620288000
:1033D000002028808820288000202880AA2028809B
:1033E00000202880BB202880002028809920288069
:1033F00000202880662028800020288055202880F2
:103400000020288055202880002028804420288003
:1034100000202880442028800020288055202880F3
:1034200000202880E9202080AA20288000202880F1
:10343000288028802080AA202880CF20208000207B
:10344000288028802880288028802880288028803C
:10345000288028802880288028802880288028802C
:103460002880F02020800020288050202880002004
:10347000288028802880F320208000202880F920C0
:1034800020800620288010202880292028800020E5
:1034900028803A2020805520288011202080642018
:1034A00002F094FF292020803520208000202880F1
:1034B00051202080FF202880532020802C2028802D
:1034C00055202080822028802C20FFF754BBA0F5B7
:1034D00013414FF4E06B4FF4274A253924D040F2D2
:1034E0000777C91E7DD04FF4887A08317AD0113918
:1034F00079D0A0F5A841083976D0A0F5A8514FF4AD
:10350000407A053971D0B1F520416FD0B1F58051C5
:103510006DD0A0F58A4131396AD0091F69D0A0F574
:10352000C851633966D0FCE347F6F001E52001F0AD
:103530003FFC3146012001F03BFC5946022001F0DE
:1035400037FC41F23001032001F032FC002104205D
:1035500001F02EFC40F20221082001F029FC00219C
:10356000092001F025FC00210A2001F021FC0021A6
:103570000C2001F01DFC00210D2001F019FC0021A0
:103580000F2001F015FC0021102001F011FC072193
:10359000112001F00DFC0021122001F009FC002196
:1035A000132001F005FC0021072001F001FC41F28D
:1035B0009061102001F0FCFB40F22721112001F066
:1035C000F7FB9D21122001F0F3FB4FF4C8511320AB
:1035D00001F0EEFB2521292001F0EAFB0D212B2033
:1035E00009E079E036E1DCE1B3E24FE3FEE3FEE33C
:1035F000FEE3FEE3FEE301F0DBFB0721302001F0F8
:10360000D7FB40F20331312001F0D2FB03213220FD
:1036100001F0CEFB40F20621352001F0C9FB082164
:10362000362001F0C5FB40F20641372001F0C0FB17
:103630004FF44171382001F0BBFB0721392001F024
:10364000B7FB40F202613C2001F0B2FB08213D20B3
:1036500001F0AEFB0021502001F0AAFBEF21512028
:1036600001F0A6FB0021522001F0A2FB40F23F1125
:10367000532001F09DFB5146602001F099FB012190
:10368000612001F095FB00216A2001F091FB0021EF
:10369000802001F08DFB0021812001F089FB0021B9
:1036A000822001F085FB0021832001F081FB0021B5
:1036B000842001F07DFB0021852001F079FB1021A1
:1036C000902001F075FB4FF4C061922001F070FB77
:1036D00040F233110720EEE341F28F01EC2001F0BC
:1036E00067FB41F23421EF2001F062FB31460120FB
:1036F00001F05EFB5946022001F05AFB41F2300115
:10370000032001F055FB0021042001F051FB40F2A1
:103710000221082001F04CFB0021092001F048FBA8
:1037200000210A2001F044FB01210C2001F040FBA4
:1037300000210D2001F03CFB00210F2001F038FB9F
:103740000021102001F034FB0721112001F030FB93
:103750000021122001F02CFB0021132001F028FB96
:103760000121072001F024FB322002F02FFE41F25C
:103770009041102001F01CFB40F22721112001F0A4
:1037800017FB322002F022FE8A21122001F010FBEA
:10379000322002F01BFE4FF4D051132001F008FB41
:1037A0000621292001F004FB0D212B2001F000FB54
:1037B000322002F00BFE0021202001F0F9FA002156
:1037C000212001F0F5FA322002F000FE0021302025
:1037D00001F0EEFA40F20461312001F0E9FA40F222
:1037E0000531322001F0E4FA0021352001F0E0FA41
:1037F00040F60941362001F0DBFA4FF40171372021
:1038000001F0D6FA40F20131382001F0D1FA394600
:10381000392001F0CDFA00213C2001F0C9FA40F630
:103820000A213D2001F0C4FA322002F0CFFD002130
:10383000502001F0BDFAEF21512001F0B9FA00212A
:10384000522001F0B5FA40F23F11532001F0B0FAD6
:10385000514653E10021084601F0AAFA3146012001
:1038600001F0A6FA5946022001F0A2FA41F2300115
:10387000032001F09DFA0021042001F099FA40F2A2
:103880000221082001F094FA0021092001F090FAA9
:1038900000210A2001F08CFA01210C2001F088FAA5
:1038A00000210D2001F084FA00210F2001F080FAA0
:1038B000322002F08BFD40F20111072001F078FA6E
:1038C000322002F083FD4FF48651102001F070FA8F
:1038D0000721112001F06CFA53465146122001F0E5
:1038E00067FA4FF43061132001F062FA00212920B9
:1038F00001F05EFA44F210012B2001F059FA002188
:10390000502001F055FAEF21512001F051FA002129
:10391000522001F04DFA40F23F11532001F048FAD5
:103920004FF41C51602001F043FA0121612001F0A5
:103930003FFA00216A2001F03BFA0021802001F0CB
:1039400037FA0021812001F033FA0021822001F0B2
:103950002FFA0021832001F02BFA0021842001F0AE
:1039600027FA0021852001F023FA1021902001F090
:103970001FFA0021922001F01BFA0121932001F08F
:1039800017FA1946952001F013FA0021972001F04B
:103990000FFA0021982001F00BFA40F27311072072
:1039A00087E341F21401E72001F002FA31460120D9
:1039B00001F0FEF94FF40071022001F0F9F941F233
:1039C0003801032001F0F4F940F20221082001F04F
:1039D000EFF90021092001F0EBF900210A2001F0A4
:1039E000E7F900210C2001F0E3F900210D2001F09E
:1039F000DFF900210F2001F0DBF90021102001F098
:103A0000D7F90721112001F0D3F90021122001F08C
:103A1000CFF90021132001F0CBF9C82002F0D6FC29
:103A200041F29061102001F0C3F940F227211120EA
:103A300001F0BEF9322002F0C9FC0C21122001F085
:103A4000B7F9322002F0C2FC4FF40061132001F0FC
:103A5000AFF91121292001F0ABF90B212B2001F046
:103A6000A7F9322002F0B2FC0021202001F0A0F9D9
:103A700040F23F131946212001F09AF9002130202D
:103A800001F096F94FF483742146312001F090F94A
:103A90000021322001F08CF94FF40171352001F042
:103AA00087F941F20A61362001F082F93946372060
:103AB00001F07EF92146382001F07AF939463920A3
:103AC00001F076F940F202413C2001F071F940F634
:103AD0000F413D2001F06CF90021502001F068F900
:103AE000EF21512001F064F90021522001F060F92A
:103AF0001946532001F05CF94FF41C51602001F08D
:103B000057F90121612001F053F900216A2001F0E9
:103B10004FF90021802001F04BF90021812001F0B4
:103B200047F90021822001F043F90021832001F0B0
:103B30003FF90021842001F03BF90021852001F0AC
:103B400037F91021902001F033F94FF4C061922031
:103B5000FEE33146012001F02BF95946022001F025
:103B600027F941F23001032001F022F9002104205D
:103B700001F01EF940F20721082001F019F9002197
:103B8000092001F015F900210A2001F011F90021A6
:103B90000C2001F00DF900210D2001F009F90021A0
:103BA0000F2001F005F9142002F010FC41F2B06181
:103BB000102001F0FDF80121112001F0F9F8012198
:103BC000172001F0F5F84FF49C71122001F0F0F885
:103BD0004FF40061132001F0EBF80921292001F0D6
:103BE000E7F809212A2001F0E3F80021A42001F0E0
:103BF000DFF80021502001F0DBF8EF21512001F027
:103C0000D7F80021522001F0D3F840F23F115320A1
:103C100001F0CEF84FF41C51602001F0C9F80121E9
:103C2000612001F0C5F800216A2001F0C1F80021EF
:103C3000802001F0BDF80021812001F0B9F80021B9
:103C4000822001F0B5F80021832001F0B1F80021B5
:103C5000842001F0ADF80021852001F0A9F813219E
:103C6000902001F0A5F80021922001F0A1F8032195
:103C7000932001F09DF85146952001F099F840F20B
:103C80007311072001F094F8322011E10021072080
:103C900001F08EF8322002F099FB4FF48E71122061
:103CA00001F086F80121A42001F082F80F210820FC
:103CB00001F07EF808210A2001F07AF808210D2091
:103CC00001F076F83946302001F072F807213120F2
:103CD00001F06EF840F20361322001F069F85C46B1
:103CE0005946332001F064F840F20221342001F0FB
:103CF0005FF80221352001F05BF841F60F713620A4
:103D000001F056F83946372001F052F800213820EA
:103D100001F04EF80021392001F04AF839463A20E6
:103D200000E048E301F044F800213B2001F040F8B6
:103D300007213C2001F03CF800213D2001F038F83B
:103D4000322002F043FB0121072001F031F801216C
:103D5000172001F02DF8322002F038FB4FF4BD514E
:103D6000102001F025F840F21721112001F020F871
:103D70004FF48F71122001F01BF84FF47061132083
:103D800001F016F800212A2001F012F80A2129205A
:103D900001F00EF84FF49F71122001F009F8002194
:103DA000502001F005F8EF21512001F001F8002129
:103DB000522000F0FDFF40F23F11532000F0F8FFC9
:103DC0004FF41C51602000F0F3FF0121612000F04E
:103DD000EFFF00216A2000F0EBFF0021802000F0BF
:103DE000E7FF0021812000F0E3FF04E064E061E1EF
:103DF0002AE2E1E288E30021822000F0D9FF0021DD
:103E0000832000F0D5FF0021842000F0D1FF0021A5
:103E1000852000F0CDFF1321902000F0C9FF51460E
:103E2000922000F0C5FF0521932000F0C1FF002182
:103E3000952000F0BDFF0021972000F0B9FF002180
:103E4000982000F0B5FF3146012000F0B1FF214677
:103E5000022000F0ADFF41F23801032000F0A8FF7E
:103E60000021042000F0A4FF00210C2000F0A0FF9E
:103E700000210F2000F09CFF0021202000F098FF7F
:103E80000021212000F094FF2121072000F090FF65
:103E9000142002F09BFA6121072000F089FF142012
:103EA00002F094FA40F27311072000F081FF142011
:103EB00002F08CFAA2E3F8E00021084600F078FF57
:103EC0000021084600F074FF0021084600F070FF52
:103ED0000021084600F06CFF0121A42000F068FFDB
:103EE000142002F073FA4FF41C542146602000F0B5
:103EF0005FFF40F202252946082000F059FF4FF4E9
:103F00000571302000F054FF43F21571312000F0AC
:103F10004FFF40F20461322000F04AFF40F6166184
:103F2000332000F045FF42F21121342000F040FF21
:103F30004FF4A851352000F03BFF48F207513620DE
:103F400000F036FF41F20741372000F031FF41F227
:103F50000341382000F02CFF2021392000F028FFF9
:103F60001A21902000F024FF0021102000F020FFF3
:103F70000721112000F01CFF0021122000F018FF83
:103F80000021132000F014FF142002F01FFA4FF458
:103F9000E661102000F00CFF40F23711112000F014
:103FA00007FF142002F012FA4FF4DC71122000F027
:103FB000FFFE142002F00AFA4FF47061132000F0A3
:103FC000F7FE80212A2000F0F3FE4821292000F08E
:103FD000EFFE142002F0FAF93146012000F0E8FE6D
:103FE0005946022000F0E4FE41F23801032000F0BF
:103FF000DFFE2946082000F0DBFE00210A2000F049
:10400000D7FE00210C2000F0D3FE00210D2000F08F
:10401000CFFE30210E2000F0CBFE0021502000F01A
:10402000C7FEEF21512000F0C3FE0021522000F016
:10403000BFFE40F23F11532000F0BAFE214660203F
:1040400000F0B6FE0121612000F0B2FE00216A20DE
:1040500000F0AEFE1121902000F0AAFE4FF4C061E6
:10406000922000F0A5FE40F20241932000F0A0FE55
:104070000221942000F09CFE142002F0A7F90121F7
:10408000072000F095FE142002F0A0F9612107201E
:1040900000F08EFE40F27311072000F089FE00212F
:1040A000202000F085FE0021212000F081FE222149
:1040B00000207EE10021084600F07AFE002108463B
:1040C00000F076FE142002F081F90021084600F08D
:1040D0006FFE0021084600F06BFE0021084600F04C
:1040E00067FE0021084600F063FE0121A42000F0D5
:1040F0005FFE142002F06AF94FF41C51602000F0BA
:1041000057FE40F60601082000F052FE40F203730D
:104110001946302000F04CFE0121312000F048FE0D
:104120000421322000F044FE4FF48171332000F06E
:104130003FFE54465146342000F03AFE40F203114F
:10414000352000F035FE1F21362000F031FE1946E3
:10415000372000F02DFE0121382000F029FE042137
:10416000392000F025FE1521902000F021FE4FF4AB
:104170008261102000F01CFE40F24721112000F067
:1041800017FE4FF4DE71122000F012FE4FF4606152
:10419000132000F00DFE782002F018F931460120BE
:1041A00000F006FE4FF40071022000F001FE41F223
:1041B0003001032000F0FCFD08210A2000F0F8FD8A
:1041C00000210C2000F0F4FD20210E2000F0F0FD75
:1041D00000210F2000F0ECFD0021202000F0E8FD80
:1041E0000021212000F0E4FD3D212A2000F0E0FD27
:1041F000142002F0EBF82D21292000F0D9FD002138
:10420000502000F0D5FD4DF2EF01512000F0D0FD1F
:104210000021522000F0CCFD40F23F11532000F06D
:10422000C7FD0021612000F0C3FD00216A2000F0DD
:10423000BFFD2146922000F0BBFD0521932000F038
:10424000B7FD3146FFF7ABBB0121002000F0B0FD08
:104250000A2002F0BBF841F22861102000F0A8FD0E
:104260000E21122000F0A4FD40F63921132000F0A9
:104270009FFD0A2002F0AAF84021112000F098FDCD
:104280005021152000F094FD0A2002F09FF81E2115
:10429000122000F08DFD0A2002F098F84FF4B15181
:1042A000102000F085FD42F63921132000F080FD3A
:1042B0000A2002F08BF83146012000F079FD5146CA
:1042C000022000F075FD41F23801032000F070FD7E
:1042D00040F20221082000F06BFD08210A2000F0C6
:1042E00067FD0021302000F063FD40F202413120E3
:1042F00000F05EFD4FF48371322000F059FD40F272
:104300000351332000F054FD4FF48271342000F04B
:104310004FFD40F20131352000F04AFD394636208C
:1043200000F046FD40F20531372000F041FD4FF42A
:104330000271382000F03CFD40F60B71392000F08E
:1043400037FD0221412000F033FD4FF41C5100E005
:10435000D5E0602000F02CFD0121612000F028FD57
:104360004FF40471902000F023FD4FF485719220EA
:1043700000F01EFD0421932000F01AFD3146A0201C
:1043800000F016FD0121072000F012FD2121072079
:1043900000F00EFD2321072000F00AFD3321072045
:1043A00000F006FD40F23311072000F001FD00216E
:1043B000A02000F0FDFC21E13021152000F0F8FCE8
:1043C00010219A2000F0F4FC2021112000F0F0FCD4
:1043D00043F22841102000F0EBFC0221122000F0F3
:1043E000E7FC41F23801132000F0E2FC282001F044
:1043F000EDFF1221084600F0DBFC282001F0E6FF6B
:1044000043F22041102000F0D3FC43F23801132086
:1044100000F0CEFC462001F0D9FF0021302000F052
:10442000C7FC40F20241312000F0C2FC40F20731EB
:10443000322000F0BDFC4FF44171332000F0B8FC95
:104440000421342000F0B4FC40F20141352000F09A
:10445000AFFC3946362000F0ABFC40F20531372086
:1044600000F0A6FC4FF4C2631946382000F0A0FC0F
:104470001946392000F09CFC3146012000F098FCE0
:104480005146022000F094FC41F23001032000F07C
:104490008FFC40F60801082000F08AFC08210A2061
:1044A00000F086FC4FF41C51602000F081FC0121DB
:1044B000612000F07DFC4FF49F71902000F078FCAB
:1044C0003146922000F074FC3146932000F070FCDD
:1044D0004FF44051A02000F06BFC1021A32000F00D
:1044E00067FC0121072000F063FC2121072000F078
:1044F0005FFC2321072000F05BFC3321072000F044
:1045000057FC40F233119DE6E22020801D202880D8
:104510000220288004202880642001F071FFE02020
:104520002080012028800A2001F050FFE020208018
:10453000032028800C2001F049FF012020800A2060
:1045400001F044FFE62020802F202880FF202880D3
:104550002880B02020802020288000202880032070
:10456000288040F21F3028800120288040F2DF1090
:10457000288000202880B42020800420288040F259
:104580001F402880002028802E202880002028809E
:10459000288028802880B6202080022028804FF4A0
:1045A000037028800020288017202880152028806C
:1045B000002028802880F0202080032028802920C7
:1045C0002080D020208000202880BE202080052050
:1045D0002880FE2028800120288000202880288034
:1045E0002880B82020800320288001202880BA203D
:1045F000208001202880642000F0B0F80020FCF723
:10460000CDFF0449C1F880814846FCF791FF1FB0F7
:10461000BDE8F08F008021420346012000E05843AE
:10462000491EC9B2FBD27047034808B50088ADF8EF
:104630000000BDF8000008BD0008006C2DE9F04145
:104640003E4E002425463288824202D972888A4230
:1046500002D80020BDE8F08100F072F9B08849F27C
:104660004138374B41F6631745F2103145F210528D
:10467000404508D0A0F5D04CBCF1040C03D08842D2
:1046800001D0B84202D14FF02E0C06E0904202D188
:104690004FF4385C01E04FF0220CA3F800C0A0F505
:1046A0001343203B03D10220401EC0B2FCD2FFF7CF
:1046B000BBFFB388BB42CDD00220401EC0B2FCD2AB
:1046C000FFF7B2FF0746B088404503D0884201D0CB
:1046D00090420BD10220401EC0B2FCD2FFF7A4FFD3
:1046E0000546F8B24FF6FF7303EA0024B088A0F540
:1046F0001343253B1AD0A0F58A43353B16D01B1D2A
:1047000014D0A0F53543053B10D0B3F580530DD040
:10471000404503D0884201D0904209D1F80AC00236
:10472000A10A40EA411040EAD52093E7384691E7D4
:104730003846BDE8F041FCF7F1BE00003E1E002007
:10474000FE07006C044910B50880052001F058FEF2
:10475000BDE81040FFF768BFFE07006C0C4A10B5BB
:10476000BE211180941C0521218002F064FF4FF0CE
:104770006632084B02F072FF02F030FF2080012009
:104780002080FF20208000202080208010BD00009D
:10479000FE07006C66660440F0B5674E00233146A4
:1047A000B279898846F6040741F66314012A01D0DC
:1047B0002AB11DE0B9421BD0A14202D118E0A142AA
:1047C00016D1082814D2DFE800F00406080A0C0EFF
:1047D000101206200CE007200AE0042008E0052063
:1047E00006E0012004E0002002E0032000E00220B7
:1047F000A1F5134C45F2103245F21055BCF1410CB5
:1048000007D0B94205D0914203D0A94201D0A142BC
:1048100075D1082812D2DFE800F0110406080A0C4E
:104820000E1080230AE0402308E0C02306E0202386
:1048300004E0602302E0A02300E0E023A94202D1CB
:104840004FF4585000E03620914205D0A94203D0E1
:10485000A14201D043F00803B94201D143F0020361
:10486000194600F0A5FAB288A2420AD0980630880C
:10487000718802D5884202D303E0884201D9318091
:1048800070802E48811CAA427289028021D10023A7
:104890000B80531C038000230B80931C0380338800
:1048A0005B1E1C0A0C80D21C0280DAB20A80B2891C
:1048B000028000230B80531C038000230B80931C79
:1048C000038073885B1E1C0A0C80D21C0280D8B245
:1048D00012E000220A800A803288521E130A0B80DE
:1048E000D2B20A80B28902800020088008807088D5
:1048F000401E020A0A80C0B20880F0BDFFE7082807
:1049000012D2DFE800F0040608110A0C0E10302362
:104910000AE0102308E0202306E0382304E02823DF
:1049200002E0182300E00823BDE8F040032043F430
:10493000805100F03DBA00003E1E0020FE07006CD2
:104940002DE9F04F4E4F0B463A46BD880C0ADFF872
:1049500034B191895289A5F513464FEA102C0BF119
:10496000020A413E1DD0A5F5A646103E19D03E468E
:10497000BE4696F806903688A5F5D047A6EB000807
:10498000A8F10108043F17D0A5F5C857633F28D008
:10499000A5F5AA477646103F51D0B9F1010F63D073
:1049A00064E0ABF800205246AAF800C0C0B2AAF8F2
:1049B0000000ABF800100FE0B9F1010F01D11FFAB0
:1049C00088F0ABF80020050A5246AAF80050C0B2A1
:1049D000AAF80000ABF800101480D8B21080BDE82F
:1049E000F08FB9F1000F1BD0ABF800205246AAF8A7
:1049F00000C0C0B2AAF80000761E300AAAF8000073
:104A0000F0B21080ABF8001011461480D8B21080BC
:104A1000BEF80200401E020A0A80C0B20880DEE72B
:104A20001FFA88F0ABF8002000265246AAF8006072
:104A3000AAF80060060AAAF80060C0B2E1E7ABF885
:104A40000020AAF800C0521CABF80020C0B2AAF89F
:104A50000000ABF80010AAF80040491CABF80010A9
:104A6000D8B2AAF80000BAE71FFA88F0014610464B
:104A700000F09EF9B089BDE8F04F194600F098B9F2
:104A80003E1E0020FE07006C2DE9FC4F04469146B7
:104A90004844401E86B2C818401E83B2009004EB02
:104AA0000900401EC0F3072EDFF850C100980D46E4
:104AB000C0F3072B6046BCF804204FEA1128818917
:104AC0004089A2F513474FEA142A413F10D0A2F5BE
:104AD000A647103F0CD0A2F5D047043F08D09CF861
:104AE000067041F6631C0197012F13D1624511D165
:104AF000434F3880B81CA0F800A0E2B20280A0F8B2
:104B000000E0F2B202803980A0F80080E9B20180B2
:104B100059461CE0394F62453F881DD1A7EB090279
:104B2000121B374C009B92B29BB22080160AA01C2D
:104B30000680D6B206804A44521E160A0680D2B2B9
:104B400002802180A0F80080E9B20180190A01806A
:104B5000D9B20180BDE8FC8FA2F5A04CBCF5A26CD7
:104B60001FD0019801283FD0B04621462E46502044
:104B70004FF0510A4FF05209532700F019F94146FE
:104B8000504600F015F93146484600F011F9194633
:104B9000384600F00DF929462046BDE8FC4FFFF7E6
:104BA000CFBE174A1080971CA7F800A000F1010C97
:104BB000A2F800C0E4B23C80841C1480A7F800E096
:104BC000C01C1080F0B238801180A7F80080481C0B
:104BD0001080E8B23880881C1080A7F800B0C91C8B
:104BE0001180D8B23880B5E7B81B401E86B2381B9A
:104BF0009846401E294683B2B9E700003E1E0020B9
:104C0000FE07006C2DE9F84F82461F460C468B4686
:104C1000580700D0012000EBD70079084843203A1C
:104C2000C0B202F0FF090026009041E00C2F10D026
:104C3000102F12D0182F3ED1204909EBC90001EBEB
:104C400080004FF00008855D28060AD51C480288C0
:104C50000BE009EB49001B49F1E71B4901EB091087
:104C6000EFE70A9828B91648428821465046FCF7D3
:104C70003DFD6806050E1548641CA4B24088A0429C
:104C800019D9A4EB0B00B84209D10AF101001FFAAF
:104C900080FA0E485C46018851450CD906E008F1BF
:104CA000010000F0FF08B8F1080FCDD3761CF6B272
:104CB00000988642BAD3BDE8F88F00002A89000820
:104CC000A4000020C67E00083A8300083E1E002093
:104CD0002DE9FF4F81B00027DDF838B01D46924620
:104CE00080463C46B9464FEA5B0627E0281B401E3B
:104CF000C1B20A20FFF790FCBAFBF0F00A21B0FB2A
:104D0000F1F201FB120027B9691E8C4201DA48B1A9
:104D100001273030C2B206FB048080B25B46CDF87A
:104D2000009006E006FB048080B25B462022CDF8AE
:104D300000900299FFF766FF641CE4B2AC42D5D341
:104D400005B0BDE8F08F2DE9F84F044600F0FF08EC
:104D500010190D46DDE90A761FFA80FA58191FFA74
:104D600080F94FF0000B11E0544502D3E819444696
:104D700085B24D450FD23B4629462046CDF800B0BE
:104D8000FFF740FF04EB570084B2761C3278A2F1A3
:104D900020005E28E8D9BDE8F88F000002480349EA
:104DA00000890880704700003E1E0020FE07006C4E
:104DB000024A1080901C018070470000FE07006CC2
:104DC00038B50121482000F0A5FA2024ADF80040B4
:104DD00010208DF8030003200B4D8DF8020069466A
:104DE0002846FCF75DF920212846FCF7DAF9ADF8F2
:104DF0000040064C69462046FCF752F92021204627
:104E0000FCF7CFF938BD0000000C0140001801404C
:104E1000FEE700002DE9F34F83B00026054601961A
:104E200043E00024DFF890B0C5EB0511DFF88CA05B
:104E3000204601EB81084FF0010900EB48021BF806
:104E400000C01AF80270002109FA01F202EA0C030C
:104E50003A40934201D104F1010401D0A4F10104CC
:104E600001F10101C9B20829EED3401CC0B2962855
:104E7000E3D3B44201DD26460195102702230097B3
:104E8000DC213220019AFFF723FF04232246DC2194
:104E900046200097FFF71CFF04233246DC217820D0
:104EA0000097FFF715FF6D1CEDB204988542B8D34B
:104EB000019805B0BDE8F08FA81D00206E0100200C
:104EC0007047000030B50F23C27801780125F2B198
:104ED000144A126801F1E02102F4E062C2F5E062D6
:104EE000120AC2F10404D3404278A24084781C40E4
:104EF0001443220181F80024007800F01F018D4046
:104F00004009800000F1E020C0F8005130BD01F000
:104F10001F0085404809800000F1E020C0F8805162
:104F200030BD00000CED00E0024908430249086072
:104F3000704700000000FA050CED00E02DE9F0419B
:104F4000054600EB420086B201EB430084B20F46F7
:104F5000B4F5447F02D9A4F54474A4B2032000F050
:104F600065FB06F00302294600F0F00062F39F01A2
:104F70000143032000F0FEFBC5F38701192000F078
:104F8000F9FBC6F387011A2000F0F4FB322000F091
:104F90004DFBC7F3C701172000F0ECFBC4F3C701BA
:104FA000BDE8F041182000F0E5BB0000F8B5002492
:104FB000012140F23D1000F0ADF94FF48075ADF8DD
:104FC000005048268DF803600320424F8DF8020000
:104FD00069463846FCF764F829463846FCF7E1F89C
:104FE0001820ADF800003C4F10258DF8035069469D
:104FF0003846FCF755F818213846FCF7D2F8FF2060
:10500000ADF800008DF8036069463448FCF748F8B5
:105010004020ADF80000324E8DF80350694630460E
:10502000FCF73EF840213046FCF7BBF84FF4404611
:10503000ADF800608DF803502A4D69462846FCF70C
:105040002FF831462846FCF7ACF801212648FCF73A
:1050500075F800F059FA8021122000F08BFB08B19E
:105060000120F8BD322001F0B1F91C2000F0DEFA79
:105070004FF6FF7505EA00261D2000F0D7FA40EA3A
:105080000601A1F5FE40A23803D018A0FBF7F2F804
:10509000E6E70A2000F0CAFA05EA00250B2000F036
:1050A000C5FA40EA0501A1F5EE40213804D012A06E
:1050B000FBF7E0F80220F8BD124D05EB4400417803
:1050C00015F8140000F056FB641CA4B2412CF4D374
:1050D0000020F8BD00080140000C01400010014014
:1050E0000014014000200140000230004D49443AC4
:1050F00025640D0A000000004849443A25640D0A61
:1051000000000000869600082DE9F0470C46054691
:105110004AB3C5F5207000EBD070C0F34F07C4F55B
:10512000F07000EBD070C0F34F060621122000F0A3
:1051300021FB2321172000F01DFBA021182000F0E7
:1051400019FB0721192000F015FBF0211A2000F0AF
:1051500011FB0021322000F00DFBA021292000F0DE
:1051600009FBF02128E0C5F5A07000EBD070C0F37A
:105170004F07C4F1F00000EBD070C0F34F0646219A
:10518000122000F0F7FA3F21172000F0F3FA502127
:10519000182000F0EFFA0321192000F0EBFA782133
:1051A0001A2000F0E7FA0021322000F0E3FA502143
:1051B000292000F0DFFA78212C2000F0DBFA1720FC
:1051C00000F034FA00EB9700C1B2172000F0D2FAD9
:1051D000C5F387018A46182000F0CCFA192000F0A8
:1051E00025FA00EB5600C1B2192000F0C3FAC4F34F
:1051F000470189461A2000F0BDFA322000F016FA65
:105200008046F007400E07F0030104F0010640EA73
:10521000011040EA860105F00304214341EA080138
:10522000322000F0A7FA5146292000F0A3FA49469F
:105230002C2000F09FFA2A2000F0F8F944EA080434
:1052400044EA8601BDE8F0472A2000F093BA000046
:1052500008B548208DF8030003208DF802004FF4B4
:105260008070ADF8000069460148FBF719FF08BDE2
:1052700000080140704700002DE9F0470020184A5F
:10528000014690461154401C80B29628F9D300255F
:105290004FF6FF79002405F1BF064FF0010A05EB38
:1052A000450704F59470B1B280B2FFF7C7F94845DD
:1052B0000CD107EBD40004F0070218F80010C2F17B
:1052C000070C0AFA0CF2114308F80010641CA4B28F
:1052D000182CE6D36D1CADB2322DDBD3BDE8F087C0
:1052E000A81D0020044A0029516901D0014300E0B3
:1052F000814351617047000000100240044A0029B8
:10530000D16901D0014300E08143D16170470000C1
:1053100000100240044A0029916901D0014300E0D5
:1053200081439161704700000010024030B5204A6F
:105330005168204B11F00C0103D0042901D0082939
:1053400001D0036012E05168536801F470114FF00E
:10535000020413F4803F04EB914102D053689B0395
:1053600001D5154B00E0134B5943016051680F23E1
:1053700003EA1111114B5C5C0168E1404160546823
:10538000072505EA14241C5D21FA04F4846054689E
:1053900005EAD4241B5DD940C1605268032303EAA7
:1053A0009232064B1B1F9A5CB1FBF2F1016130BDDA
:1053B0000010024000127A0000093D00181A002077
:1053C0002DE9FC5FC10AC1EB01211F22B1FBF2F103
:1053D000CFB2C0F3451100F01F00C0EB0020C1EBBD
:1053E00001213F23B0FBF2F0B1FBF3F1C5B23F4C1A
:1053F000CEB2384602F0ACFB814682460190304680
:1054000002F0A6FB8346494602F0B6FC00D8D94616
:10541000284602F09DFB4946009002F0ADFC01D801
:10542000DDF800905846514602F0A6FB00D8DA4657
:105430005146009802F0A0FB01D8DDF800A0DFF88B
:10544000B0804846414602F0CBFB2A4902F072FA8E
:1054500060635146484602F0C1FC8246414602F074
:10546000BFFB494602F066FAA0634946019802F084
:1054700023FB0AD1D046701B02F052FB414602F0DA
:1054800059FA1D4902F0ACFBE0635846494602F068
:1054900013FB0DD1D046E81B02F042FB414602F05F
:1054A00049FA154902F09CFB144902F0D5F9E06372
:1054B0004946009802F000FB01D0E06B0DE0554634
:1054C000B81B02F02DFB294602F034FA0A4902F01B
:1054D00087FB0B4902F0C0F9E06310F1FF4F03D3E3
:1054E000084902F0B9F9E063BDE8FC9F0000002024
:1054F0000000C84200007F43000070420000F042FC
:10550000000070430000B44338B501214FF490709F
:10551000FFF700FF4FF40055ADF8005048208DF81C
:1055200003000320114C8DF8020069462046FBF76A
:10553000B7FD29462046FBF734FE0820ADF80000F1
:1055400010200B4D8DF8030069462846FBF7A8FD97
:1055500008212846FBF725FE606820F47000606093
:10556000606840F44010606038BD000000200140D9
:105570000014014070B5322000F042FF0C4D0120B4
:10558000C5F8B4010B4EC6F88C01322005F5DA756A
:1055900006F5C67600F034FF00243460322000F0B7
:1055A0002FFF2C60BDE87040322000F029BF0000C2
:1055B00000002442008022422DE9F047184F0024C9
:1055C000786820F470007860786840F400007860B3
:1055D000DFF85090144E08254FF00108A246322003
:1055E00000F00EFFC6F88C816006040ED9F8340175
:1055F00008B1641CE4B2322000F002FFC6F88CA1AE
:105600006D1E15F0FF05EAD1786820F4700078600F
:10561000786840F4401078602046BDE8F0870000CC
:1056200000200140000024420080224210B50446C0
:1056300000F022F8422000F055F8642000F0E0FE6F
:10564000204600F04FF8642000F0DAFE00F02EF85B
:10565000642000F0D5FE00F00FF8432000F042F87F
:10566000642000F0CDFEFFF7A7FF0446FFF782FF9E
:1056700000F01CF8204610BD70B50A4E0120C6F897
:10568000B401094DC5F88C01322005F5C67506F543
:10569000DA7600F0B5FE00243460322000F0B0FE6F
:1056A0002C6070BD000024420080224270B50B4C7B
:1056B0000020C4F8B401322004F5DA7400F0A0FE32
:1056C00007480125C0F88C51322000F099FE256072
:1056D000BDE87040322000F093BE0000000024427C
:1056E000008022422DE9F04700241F4E1F4F05463F
:1056F000A0464FF00109280601D5484600E0404683
:10570000C6F8B4016806050E322000F079FEC7F82D
:105710008C91322000F074FEC7F88C81641CE4B2D6
:10572000082CE8D3124C606820F470006060606858
:1057300040F400006060322000F062FEC7F88C91F7
:10574000322000F05DFED6F8340100B10120C7F828
:105750008C81616821F470016160616841F44011DD
:105760006160BDE8F0870000000024420080224212
:105770000020014070B50D4606460024FFF77CFF6F
:105780004220FFF7AFFF00B10124642000F038FE93
:105790003046FFF7A7FF00B10124642000F030FE7F
:1057A0002846FFF79FFF00B10124FFF77FFF204647
:1057B00070BD70470CB50022264800920192016826
:1057C00041F4803101604FF4A063016801F40031BD
:1057D00001910099491C0091019911B900999942D0
:1057E000F3D10168890333D5012101911A490A686F
:1057F00042F010020A600A6822F003020A600A6896
:1058000042F002020A6041684160416841604168BB
:1058100041F480614160416821F47C11416041683C
:1058200041F4E8114160016841F080710160016854
:105830008901FCD5416821F003014160416841F0D4
:10584000020141604168C1F381010229FAD10CBD16
:1058500001920CBD00100240002002404FF0E021F8
:105860000428086903D020F004000861704740F064
:105870000400FAE7704700000F4810B5016841F0D6
:105880000101016041680D4A1140416001680C4A04
:1058900011400160016821F480210160416821F418
:1058A000FE0141604FF41F018160FFF783FF05494E
:1058B0004FF00060086010BD001002400000FFF8CB
:1058C000FFFFF6FE08ED00E010B50A4C012120466E
:1058D00000F0B1F800280AD00121204600F093F82A
:1058E0000549D1F8940118B10020C1F8940110BD08
:1058F0000120FAE7000400400000234210B50C4CE0
:105900000121204600F097F801280AD109480169D1
:1059100088470021204600F0AAF86421204600F0C4
:10592000A4F82046BDE81040012100F06CB800004A
:1059300000080040841A002070B51F4C1F4D2078CD
:10594000000633D40121284600F075F838B12178DB
:10595000480604D5C843800612D0491C2170022194
:10596000284600F068F808B3217848060FD541F0C2
:1059700080002070284600F053F86080002112E07B
:1059800041F0800020704FF6FF706080E7E7002054
:10599000207060800146284600F069F820780221D6
:1059A00040F040002070284600F059F82846BDE835
:1059B0007040032100F027B8AA000020000C00402E
:1059C00070B5094D0121284600F035F830B1074C7B
:1059D00007A06178FAF74EFC002060702846BDE809
:1059E0007040012100F00FB800100040AA00002014
:1059F0006672616D653A25646670730D0A00000079
:105A0000C94301827047C943018270470029018858
:105A100002D041F0010101E021F001010180704755
:105A2000808E7047808C704702460020128A0A429E
:105A300000D00120704702460020138A92890B4251
:105A400002EA010202D0002A00D001207047002A99
:105A5000828901D00A4300E08A4382817047028C28
:105A600022F002020A4302847047818570478184D4
:105A70007047000030B502881B4C1C4DA0420DD071
:105A8000A8420BD0B0F1804F08D0194B984205D0F6
:105A9000184B984202D0184B984203D122F0700361
:105AA0004A881A43154B984206D0154B984203D0AA
:105AB00022F44073CA881A4302808A8882850A8841
:105AC0000285A0420AD0A84208D00E4A904205D0D2
:105AD0000D4A904202D00D4A904201D1097A0186C6
